:020000040800F2
:1000000000280020491A0008051400080D140008F3
:10001000151400081D140008251400080000000035
:100020000000000000000000000000002D14000887
:10003000391400080000000045140008511400089D
:10004000911A0008911A0008911A0008911A0008E4
:10005000911A0008911A0008911A0008911A0008D4
:10006000911A0008911A0008911A0008911A0008C4
:10007000911A0008911A0008911A0008911A0008B4
:10008000911A0008911A0008911A0008911A0008A4
:10009000911A0008911A0008911A0008911A000894
:1000A000911A0008911A0008911A0008911A000884
:1000B0005D140008911A000800000000911A000861
:1000C000911A00080000000000000000911A0008CA
:1000D00000000000911A0008911A000800000000BA
:1000E000911A0008911A0008911A000800000000F7
:1000F0000000000000000000000000000000000000
:0C01000000000000000000005FF808F1A3
:10010C0010B5054C237833B9044B13B10448AFF345
:10011C0000800123237010BD3C0000200000000073
:10012C00C830000808B5034B1BB103490348AFF3B3
:10013C00008008BD0000000040000020C83000080E
:10014C0080B483B000AF7860094A7B6852F82330E2
:10015C00012B06D1064A7B68002142F823100123AB
:10016C0000E0002318460C37BD4680BC704700BF2A
:10017C005800002080B483B000AF7860044A7B68DC
:10018C00012142F8231000BF0C37BD4680BC7047DC
:10019C005800002080B582B000AF00237B6084E063
:1001AC00464A7B6852F8232045497B6841F8232056
:1001BC00444A7B6852F8232040497B6841F823204D
:1001CC007B68002B0AD101213F4801F049FF03460F
:1001DC0019463C4A7B6842F823101AE07B68012BD5
:1001EC000AD10221384801F03BFF03461946354A33
:1001FC007B6842F823100CE07B68022B09D10421A8
:10020C00314801F02DFF034619462E4A7B6842F80F
:10021C0023102B4A7B6852F8232028497B6851F81D
:10022C0023309A423ED1254A7B6852F82320254937
:10023C007B6851F823309A4234D1224A7B6852F8B9
:10024C00232022497B6851F823309A4216D01D4A4C
:10025C007B6852F823201D497B6841F82320194AFA
:10026C007B6852F82330002B1CD1194A7B68C821BB
:10027C0042F823107868FFF77DFF13E0144A7B687F
:10028C0052F823305A1E12497B6841F82320104A39
:10029C007B6852F82330002B04D10C4A7B68012177
:1002AC0042F823107B6801337B607B68022B7FF75D
:1002BC0077AF00BF00BF0837BD4680BD18000020D7
:1002CC000C00002000000020000C01402400002045
:1002DC006400002080B400AF0D4B02221A600D4B5D
:1002EC0003221A600C4B05221A600B4B1B680B4A3D
:1002FC001360084B1B680A4A13600A4B00221A60F1
:10030C00094B00221A6000BFBD4680BC704700BF7D
:10031C00780000207C000020800000208400002059
:10032C0088000020700000207400002080B582B08E
:10033C0000AF78607B68092B00F2C88101A252F8EB
:10034C0023F000BF79030008CF0300082504000840
:10035C007B040008D1040008270500087D0500086F
:10036C00D3050008290600087F06000800224FF478
:10037C000071D54801F08BFE00224FF48061D24809
:10038C0001F085FE00224FF40061CF4801F07FFEA2
:10039C0000224FF48051CC4801F079FE00224FF43A
:1003AC000051C94801F073FE00224FF48041C64849
:1003BC0001F06DFE01224FF40041C34801F067FECD
:1003CC0085E101224FF40071BF4801F060FE00226C
:1003DC004FF48061BC4801F05AFE00224FF40061DA
:1003EC00B94801F054FE01224FF48051B64801F097
:1003FC004EFE01224FF40051B34801F048FE012299
:10040C004FF48041B04801F042FE01224FF400410C
:10041C00AD4801F03CFE5AE100224FF40071AA48AD
:10042C0001F035FE00224FF48061A74801F02FFE49
:10043C0001224FF40061A44801F029FE00224FF480
:10044C008051A14801F023FE00224FF400519E4838
:10045C0001F01DFE01224FF480419B4801F017FE74
:10046C0000224FF40041984801F011FE2FE10022C8
:10047C004FF40071944801F00AFE00224FF48061A1
:10048C00914801F004FE00224FF400618E4801F007
:10049C00FEFD00224FF480518B4801F0F8FD012243
:1004AC004FF40051884801F0F2FD01224FF48041D5
:1004BC00854801F0ECFD00224FF40041824801F028
:1004CC00E6FD04E101224FF400717F4801F0DFFDED
:1004DC0000224FF480617C4801F0D9FD00224FF4DA
:1004EC000061794801F0D3FD01224FF48051764828
:1004FC0001F0CDFD01224FF40051734801F0C7FD0E
:10050C0000224FF48041704801F0C1FD00224FF4ED
:10051C0000416D4801F0BBFDD9E000224FF40071A1
:10052C00694801F0B4FD01224FF48061664801F086
:10053C00AEFD00224FF40061634801F0A8FD0022DB
:10054C004FF48051604801F0A2FD01224FF400519C
:10055C005D4801F09CFD00224FF480415A4801F0A7
:10056C0096FD00224FF40041574801F090FDAEE09B
:10057C0000224FF40071544801F089FD01224FF420
:10058C008061514801F083FD00224FF400614E4818
:10059C0001F07DFD00224FF480514B4801F077FDB6
:1005AC0000224FF40051484801F071FD00224FF435
:1005BC008041454801F06BFD00224FF40041424858
:1005CC0001F065FD83E000224FF400713E4801F01C
:1005DC005EFD00224FF480613B4801F058FD002283
:1005EC004FF40061384801F052FD01224FF4805164
:1005FC00354801F04CFD01224FF40051324801F016
:10060C0046FD01224FF480412F4801F040FD0122AC
:10061C004FF400412C4801F03AFD58E000224FF411
:10062C000071294801F033FD00224FF48061264807
:10063C0001F02DFD00224FF40061234801F027FD4D
:10064C0000224FF48051204801F021FD00224FF48C
:10065C0000511D4801F01BFD00224FF480411A4847
:10066C0001F015FD00224FF40041174801F00FFD79
:10067C002DE000224FF40071134801F008FD002218
:10068C004FF48061104801F002FD00224FF400612C
:10069C000D4801F0FCFC00224FF480510A4801F097
:1006AC00F6FC01224FF40051074801F0F0FC002247
:1006BC004FF48041044801F0EAFC00224FF4004161
:1006CC00014801F0E4FC02E00008014000BF00BF5B
:1006DC000837BD4680BD00BF80B582B000AF7860E2
:1006EC007B68092B00F2948101A252F823F000BF21
:1006FC002507000871070008BD0700080908000855
:10070C0055080008A1080008ED0800083909000880
:10071C0085090008D109000800220821BF4801F012
:10072C00B6FC00221021BD4801F0B1FC00222021B2
:10073C00BA4801F0ACFC00224021B84801F0A7FCFB
:10074C0000228021B54801F0A2FC00224FF48071F8
:10075C00B24801F09CFC01224FF40071AF4801F04B
:10076C0096FC56E101220821AC4801F090FC0022D5
:10077C001021AA4801F08BFC00222021A74801F08F
:10078C0086FC01224021A54801F081FC0122802138
:10079C00A24801F07CFC01224FF480719F4801F0CB
:1007AC0076FC01224FF400719C4801F070FC30E1A2
:1007BC0000220821994801F06AFC00221021974878
:1007CC0001F065FC01222021944801F060FC00221C
:1007DC004021924801F05BFC002280218F4801F0FF
:1007EC0056FC01224FF480718C4801F050FC002221
:1007FC004FF40071894801F04AFC0AE100220821FB
:10080C00864801F044FC00221021844801F03FFC92
:10081C0000222021814801F03AFC002240217F482F
:10082C0001F035FC012280217C4801F030FC0122D2
:10083C004FF48071794801F02AFC00224FF40071CA
:10084C00764801F024FCE4E001220821734801F011
:10085C001EFC00221021714801F019FC00222021FD
:10086C006E4801F014FC012240216C4801F00FFC91
:10087C0001228021694801F00AFC00224FF48071AA
:10088C00664801F004FC00224FF40071634801F04B
:10089C00FEFBBEE000220821604801F0F8FB0122BB
:1008AC0010215E4801F0F3FB002220215B4801F08F
:1008BC00EEFB00224021594801F0E9FB0122802186
:1008CC00564801F0E4FB00224FF48071534801F0CC
:1008DC00DEFB00224FF40071504801F0D8FB98E089
:1008EC00002208214D4801F0D2FB012210214B4877
:1008FC0001F0CDFB00222021484801F0C8FB00226A
:10090C004021464801F0C3FB00228021434801F0FE
:10091C00BEFB00224FF48071404801F0B8FB00226E
:10092C004FF400713D4801F0B2FB72E00022082147
:10093C003A4801F0ACFB00221021384801F0A7FB2B
:10094C0000222021354801F0A2FB0122402133482E
:10095C0001F09DFB01228021304801F098FB01221F
:10096C004FF480712D4801F092FB01224FF400717D
:10097C002A4801F08CFB4CE000220821274801F0AA
:10098C0086FB00221021254801F081FB002220214A
:10099C00224801F07CFB00224021204801F077FB2B
:1009AC00002280211D4801F072FB00224FF480715F
:1009BC001A4801F06CFB00224FF40071174801F04B
:1009CC0066FB26E000220821144801F060FB00229F
:1009DC001021124801F05BFB002220210F4801F08E
:1009EC0056FB002240210D4801F051FB01228021D1
:1009FC000A4801F04CFB00224FF48071074801F0CB
:100A0C0046FB00224FF40071044801F040FB00E06B
:100A1C0000BF00BF0837BD4680BD00BF000C0140C1
:100A2C0080B582B000AF786039607B68002B03D052
:100A3C007B68012B17D032E000224FF480411A481A
:100A4C0001F025FB01224FF40041174801F01FFB78
:100A5C003B68164A82FB03129210DB17D31A184616
:100A6C00FFF764FC1BE001224FF480410E4801F0BB
:100A7C000EFB00224FF400410B4801F008FB3A68D2
:100A8C000A4B83FB02139910D317C91A0B469B0010
:100A9C000B445B00D11A0846FFF748FC00BF00BFAF
:100AAC000837BD4680BD00BF000C01406766666616
:100ABC0080B582B000AF786039607B68022B03D0C0
:100ACC007B68032B17D032E000224FF480511A4878
:100ADC0001F0DDFA01224FF40051174801F0D7FA6A
:100AEC003B68164A82FB03129210DB17D31A184686
:100AFC00FFF7F2FD1BE001224FF480510E4801F08C
:100B0C00C6FA00224FF400510B4801F0C0FA3A68C3
:100B1C000A4B83FB02139910D317C91A0B469B007F
:100B2C000B445B00D11A0846FFF7D6FD00BF00BF8F
:100B3C000837BD4680BD00BF000C01406766666685
:100B4C0080B500AF064B1B6819460020FFF768FF05
:100B5C00044B1B6819460220FFF7AAFF00BF80BD9B
:100B6C00840000208800002080B500AF064B1B6875
:100B7C0019460120FFF754FF044B1B68194603204C
:100B8C00FFF796FF00BF80BD840000208800002086
:100B9C0080B500AF00F078FF00F026F800F0ACF85C
:100BAC0000F05EF80C4801F0D1FEFFF793FB00F06B
:100BBC00C3F901220021094800F0D8F901220021D3
:100BCC00074800F0D3F901220021064800F0CEF9C5
:100BDC0000F0EAFAFCE700BF8C000020ED140008DE
:100BEC00A10100081917000880B590B000AF07F1FB
:100BFC00180328220021184602F034FA3B1D00226B
:100C0C001A605A609A60DA601A610223BB61012390
:100C1C00BB621023FB6200237B6307F118031846A9
:100C2C0001F066FA0346002B01D000F0D1F80F2337
:100C3C007B600023BB600023FB6000233B6100232F
:100C4C007B613B1D0021184601F0D4FC0346002BB0
:100C5C0001D000F0BDF800BF4037BD4680BD00009C
:100C6C0080B586B000AF07F1080300221A605A6005
:100C7C009A60DA603B4600221A605A601D4B4FF0B6
:100C8C0080421A601B4B41F63F725A60194B00228E
:100C9C009A60184B0922DA60164B00221A61154B28
:100CAC0000229A61134801F001FE0346002B01D08B
:100CBC0000F08EF84FF48053BB6007F1080319461F
:100CCC000C4801F07FFF0346002B01D000F080F8A8
:100CDC0000233B6000237B603B461946054802F02D
:100CEC0057F90346002B01D000F072F800BF1837FB
:100CFC00BD4680BD8C00002080B586B000AF07F1EA
:100D0C00080300221A605A609A60DA60284B9B69CB
:100D1C00274A43F004039361254B9B6903F00403BA
:100D2C007B607B68224B9B69214A43F008039361EB
:100D3C001F4B9B6903F008033B603B6800224FF696
:100D4C003F611C4801F0A3F900224FF2F8311A4818
:100D5C0001F09DF94FF63F63BB600123FB6000235C
:100D6C003B6102237B6107F108031946114800F02F
:100D7C00FBFF0723BB600023FB6000233B6107F1F3
:100D8C00080319460C4800F0EFFF4FF2F833BB6034
:100D9C000123FB6000233B6102237B6107F1080305
:100DAC001946054800F0E0FF00BF1837BD4680BD6E
:100DBC000010024000080140000C014080B582B0D8
:100DCC0000AF786000F0CCF900BF0837BD4680BD9D
:100DDC0080B400AF72B600BF00BFFDE780B500AFB6
:100DEC004E4B1B68042B00F28E8001A252F823F0AC
:100DFC00110E0008430E0008710E0008AB0E00081F
:100E0C00D90E0008464B1B684FF47A7202FB03F3B1
:100E1C00184600F02DFB434B1B68434A1360404BB4
:100E2C001B68424A136000F0EDFB00F059FC3B4B91
:100E3C0001221A6070E03E4B1B68012B65D13D4BC3
:100E4C001B684FF47A7202FB03F3184600F010FB98
:100E5C0000F030FC374B1B68344A13602F4B0222D6
:100E6C001A6052E0324B1B68012B50D12C4B1B6883
:100E7C004FF47A7202FB03F3184600F0F9FA00F013
:100E8C00EDFB00F001FC264B1B68274A1360254B39
:100E9C001B68264A1360214B03221A6037E0244B4F
:100EAC001B68012B35D1234B1B684FF47A7202FB64
:100EBC0003F3184600F0DCFA00F0BAFB1D4B1B687C
:100ECC00194A1360154B04221A6022E0184B1B6858
:100EDC00012B20D1124B1B684FF47A7202FB03F3E7
:100EEC00184600F0C5FA00F08DFB00F0F9FB0D4B35
:100EFC001B680D4A13600A4B1B680C4A1360074BA6
:100F0C0001221A6007E000BF06E000BF04E000BF4A
:100F1C0002E000BF00E000BF00BF80BD74000020F5
:100F2C007C0000208000002084000020880000202D
:100F3C00F80300207800002080B582B000AF0A4B87
:100F4C0000221A700023FB7106E0FB79184600F0B2
:100F5C00C7F9FB790133FB71FB79272BF5D900BF5E
:100F6C0000BF0837BD4680BDF4030020B0B489B083
:100F7C0000AFF860B9607A600023FB77764B1B7882
:100F8C00002B12D1754AFB681360744ABB6853601E
:100F9C00724A7B689360714B00221A736E4B1B78FC
:100FAC000133DAB26C4B1A70CFE06B4B1B78002B11
:100FBC0000F0CB8089E0FA7F684913469B0013440C
:100FCC009B000B4404331B68BA689A426ED2624B86
:100FDC001B78BB6117E0BB695A1E6048B9690B46A8
:100FEC009B000B449B0018445C4913469B00134424
:100FFC009B000B4404461D460FCD0FC42B68236089
:10100C00BB69013BBB61FB7FBA699A42E3DCFA7FA7
:10101C00524913469B0013449B000B44FA681A6018
:10102C00FA7F4E4913469B0013449B000B44043338
:10103C00BA681A60FA7F494913469B0013449B0017
:10104C000B4408337A681A60FA7F444913469B00B4
:10105C0013449B000B440C3300221A703E4B1B783C
:10106C000133DAB23C4B1A70FB7F01337B6116E023
:10107C003A497A6913469B0013449B000B44043392
:10108C001A68BB68D11A35487A6913469B00134419
:10109C009B000344043319607B6901337B612E4B45
:1010AC001B781A467B699342E2DB18E0FA7F2B49E6
:1010BC0013469B0013449B000B4404331B68BA6813
:1010CC00D31ABB60FB7F0133FB77234B1B78FA7F72
:1010DC009A4204D2204B1B78272B7FF66CAF1E4B09
:1010EC001B78FA7F9A4230D11B4B1B78262B2CD8BD
:1010FC00FA7F1A4913469B0013449B000B44FA6871
:10110C001A60FA7F154913469B0013449B000B444D
:10111C000433BA681A60FA7F104913469B001344D3
:10112C009B000B4408337A681A60FA7F0B4913460C
:10113C009B0013449B000B440C3300221A70064B8B
:10114C001B780133DAB2044B1A70FB7F1846243734
:10115C00BD46B0BC704700BFF4030020D400002093
:10116C0080B400AF0F4B1B68002B17D00D4B5B6886
:10117C00002B0ED10B4B1B7B0133DAB2094B1A73CC
:10118C00084B9B68002B09D0064B9B68054A5360A3
:10119C0004E0044B5B68013B024A536000BFBD4650
:1011AC0080BC7047D4000020B0B586B000AF164BA1
:1011BC001B7B002B23D0144B1B689847124B1B7BBB
:1011CC00013BDAB2104B1A730F4B9B68002B03D107
:1011DC00002000F085F812E00B4B3C1D1D460FCD96
:1011EC000FC42B682360002000F07AF8002000F078
:1011FC000DF87B68B968FA681846FFF7B7FE00BFB0
:10120C001837BD46B0BD00BFD4000020B0B485B0C7
:10121C0000AF7860304B1B78013B7A689A424FD014
:10122C007B68FB6017E0FB685A1C2C48F9680B467E
:10123C009B000B449B001844284913469B00134405
:10124C009B000B4404461D460FCD0FC42B68236036
:10125C00FB680133FB60204B1B78013BFA689A4218
:10126C00E1DB1D4B1B785A1E1C4913469B00134493
:10127C009B000B4400221A60174B1B785A1E17490F
:10128C0013469B0013449B000B44043300221A604A
:10129C00114B1B785A1E114913469B0013449B009B
:1012AC000B44083300221A600B4B1B785A1E0B4957
:1012BC0013469B0013449B000B440C3300221A7002
:1012CC00054B1B78013BDAB2034B1A7000BF143785
:1012DC00BD46B0BC704700BFF4030020D400002012
:1012EC0080B485B000AF78600023FB7316497A6830
:1012FC0013469B0013449B000B4400221A601249B6
:10130C007A6813469B0013449B000B440433002261
:10131C001A600D497A6813469B0013449B000B44DA
:10132C00083300221A6008497A6813469B0013445C
:10133C009B000B440C3300221A70FB7B18461437AD
:10134C00BD4680BC704700BFD400002080B485B07F
:10135C0000AF154B9B69144A43F001039361124B88
:10136C009B6903F00103BB60BB680F4BDB690E4A42
:10137C0043F08053D3610C4BDB6903F080537B60EB
:10138C007B680A4B5B68FB60FB6823F0E063FB60E7
:10139C00FB6843F08063FB60044AFB68536000BF4A
:1013AC001437BD4680BC704700100240000001405D
:1013BC0080B584B000AF78607B681B68B3F1804F58
:1013CC0013D10C4BDB690B4A43F00103D361094B7E
:1013DC00DB6903F00103FB60FB68002200211C2089
:1013EC0000F08BFC1C2000F0A4FC00BF1037BD46A5
:1013FC0080BD00BF0010024080B400AF00BFFDE70D
:10140C0080B400AF00BFFDE780B400AF00BFFDE7C4
:10141C0080B400AF00BFFDE780B400AF00BFFDE7B4
:10142C0080B400AF00BFBD4680BC704780B400AF35
:10143C0000BFBD4680BC704780B400AF00BFBD4646
:10144C0080BC704780B500AF00F064FB00BF80BD6E
:10145C0080B500AF024801F0C5FA00BF80BD00BFE7
:10146C008C00002080B400AF00BFBD4680BC70472C
:10147C0080B483B000AF78607B68084A82FB0312AB
:10148C009210DB17D31A064A1360064B00221A601F
:10149C0000BF0C37BD4680BC704700BF67666666F0
:1014AC00FC030020F803002080B483B000AF786008
:1014BC007B68084A82FB03129210DB17D31A064A88
:1014CC001360064B00221A6000BF0C37BD4680BC6F
:1014DC00704700BF676666660404002000040020A5
:1014EC0080B400AF154B1B68002B05DD134B1B683C
:1014FC00013B124A136002E0114B01221A60114B9E
:10150C001B68002B05DD0F4B1B68013B0D4A13605C
:10151C0002E00D4B01221A600C4B1B68002B05DD01
:10152C000A4B1B68013B094A136002E0084B01227D
:10153C001A6000BFBD4680BC704700BFFC03002092
:10154C00F803002004040020000400200C040020F8
:10155C000804002080B582B000AF78607B68042B53
:10156C001BD07B68042B21DC7B68022B03D07B68AF
:10157C00032B09D01AE001210F4800F0A0FD08212F
:10158C000D4800F09CFD12E002210B4800F097FD85
:10159C001021094800F093FD09E00421064800F0F1
:1015AC008EFD2021044800F08AFD00E000BF00BF42
:1015BC000837BD4680BD00BF0008014080B500AFB4
:1015CC00012201210E4800F062FD012202210C488B
:1015DC0000F05DFD01220421094800F058FD0122B4
:1015EC000821074800F053FD01221021044800F0A7
:1015FC004EFD01222021024800F049FD00BF80BDB4
:10160C000008014080B500AF00220121074800F01E
:10161C003EFD01220221054800F039FD0122042182
:10162C00024800F034FD00BF80BD00BF000801403F
:10163C0080B500AF01220121074800F028FD0022EF
:10164C000221054800F023FD01220421024800F08C
:10165C001EFD00BF80BD00BF0008014080B500AF7B
:10166C0001220121074800F012FD01220221054848
:10167C0000F00DFD00220421024800F008FD00BF1F
:10168C0080BD00BF0008014080B500AF00220821DA
:10169C00074800F0FCFC01221021054800F0F7FC83
:1016AC0001222021024800F0F2FC00BF80BD00BFE7
:1016BC000008014080B500AF01220821074800F066
:1016CC00E6FC00221021054800F0E1FC012220215B
:1016DC00024800F0DCFC00BF80BD00BF00080140E8
:1016EC0080B500AF01220821074800F0D0FC012290
:1016FC001021054800F0CBFC00222021024800F00C
:10170C00C6FC00BF80BD00BF0008014080B500AF23
:10171C00954B1B68042B00F27A8101A252F823F03E
:10172C00411700085B170008DD1700089518000822
:10173C004B1900088D4B02221A60FFF701FA4FF487
:10174C00FA70FFF7B1FE884B01221A6068E1FFF7CF
:10175C0045FB874B1B68012B1ED14FF4FA70FFF72A
:10176C00A3FE824B1B68022B0FD1FFF7FDF9814BB7
:10177C001B68013B7F4A13607F4B1B68013B7E4A11
:10178C0013607A4B00221A6001E0FFF7D9F9774B0E
:10179C001B680133754A13600020FEF7D1FC034629
:1017AC00012B40F036814FF4FA70FFF77DFE734B3E
:1017BC001B68734A1360704B02221A606F4B1B68D4
:1017CC006C4A1360684B02221A60FFF7F7FE20E1A7
:1017DC00674B1B68012B17D14FF4FA70FFF764FEAF
:1017EC000220FFF7B7FE614B1B68022B05D1FFF7F8
:1017FC00BBF95E4B00221A6001E0FFF7A1F95B4BCD
:10180C001B680133594A13600020FEF799FC03460C
:10181C00012B13D14FF4FA70FFF746FE594B1B689E
:10182C00574A1360544B03221A60564B1B68514A9B
:10183C0013604D4B03221A60FFF7C0FE0120FEF728
:10184C007FFC0346012B0FD14D4B1B68632B02DD34
:10185C004B4B01221A604A4B1B680133484A1360F8
:10186C00474B1B68434A13600220FEF769FC034692
:10187C00012B40F0D080424B1B68404A13603F4B19
:10188C001B683C4A1360C6E0394B1B68012B17D10F
:10189C004FF4FA70FFF708FE0320FFF75BFE334BA3
:1018AC001B68022B05D1FFF75FF9304B00221A6041
:1018BC0001E0FFF745F92D4B1B6801332B4A1360F0
:1018CC000020FEF73DFC0346012B13D14FF4FA70B8
:1018DC00FFF7EAFD2C4B1B68294A1360264B0422A8
:1018EC001A60294B1B68234A13601F4B04221A6091
:1018FC00FFF764FE0120FEF723FC0346012B0FD1FA
:10190C001F4B1B68632B02DD1D4B01221A601C4B05
:10191C001B6801331A4A1360194B1B68154A136074
:10192C000220FEF70DFC0346012B76D1144B1B68ED
:10193C00144A1360134B1B680E4A13606DE00C4B7A
:10194C001B68012B29D14FF4FA70FFF7ADFD042071
:10195C00FFF700FE054B1B68022B17D1FFF704F9AC
:10196C00024B00221A6013E07000002010040020CB
:10197C00000400208800002084000020800000204B
:10198C0014040020780000207C000020FFF7D8F819
:10199C00244B1B680133234A13600020FEF7D0FB55
:1019AC000346012B0ED1204B00221A601D4B022244
:1019BC001A60FFF7C5F84FF4FA70FFF775FD1B4B73
:1019CC0001221A600120FEF7BBFB0346012B0FD14D
:1019DC00174B1B68632B02DD154B01221A60144B4D
:1019EC001B680133124A1360114B1B68114A1360B8
:1019FC000220FEF7A5FB0346012B10D10C4B1B68F4
:101A0C000D4A13600C4B1B680A4A136007E000BFB9
:101A1C0006E000BF04E000BF02E000BF00E000BF32
:101A2C0000BF80BD10040020740000207000002056
:101A3C0014040020880000207C000020FFF712FD19
:101A4C000B480C490C4A002302E0D458C450043310
:101A5C00C4188C42F9D3094A094C002301E01360E5
:101A6C000432A242FBD301F005FBFFF791F870475B
:101A7C00000000203C0000200C3100083C0000203D
:101A8C001C040020FEE7000080B500AF084B1B686B
:101A9C00074A43F010031360032000F023F90F20D2
:101AAC0000F008F8FFF752FC0023184680BD00BF79
:101ABC000020024080B582B000AF7860124B1A68EB
:101ACC00124B1B7819464FF47A73B3FBF1F3B2FB4C
:101ADC00F3F3184600F03BF90346002B01D0012329
:101AEC000EE07B680F2B0AD8002279684FF0FF308C
:101AFC0000F003F9064A7B681360002300E0012321
:101B0C0018460837BD4680BD300000203800002044
:101B1C003400002080B400AF054B1B781A46054BEF
:101B2C001B681344034A136000BFBD4680BC70475A
:101B3C00380000201804002080B400AF024B1B6852
:101B4C001846BD4680BC70471804002080B485B090
:101B5C0000AF78607B6803F00703FB600C4BDB681D
:101B6C00BB60BA684FF6FF031340BB60FB681A02F8
:101B7C00BB68134343F0BF6343F40033BB60044AB8
:101B8C00BB68D36000BF1437BD4680BC704700BF34
:101B9C0000ED00E080B400AF044BDB681B0A03F0DF
:101BAC0007031846BD4680BC704700BF00ED00E03F
:101BBC0080B483B000AF0346FB7197F90730002B5C
:101BCC000BDBFB7903F01F02064997F907305B0921
:101BDC00012000FA02F241F8232000BF0C37BD4669
:101BEC0080BC704700E100E080B483B000AF0346D6
:101BFC003960FB7197F90730002B0ADB3B68DAB2CE
:101C0C000C4997F907301201D2B20B4483F8002328
:101C1C000AE03B68DAB20849FB7903F00F03043B96
:101C2C001201D2B20B441A7600BF0C37BD4680BCF1
:101C3C00704700BF00E100E000ED00E080B489B027
:101C4C0000AFF860B9607A60FB6803F00703FB61D2
:101C5C00FB69C3F10703042B28BF0423BB61FB6999
:101C6C000433062B02D9FB69033B00E000237B61A4
:101C7C004FF0FF32BB6902FA03F3DA43BB681A4038
:101C8C007B699A404FF0FF317B6901FA03F3D9432A
:101C9C007B680B40134318462437BD4680BC704705
:101CAC0080B582B000AF78607B68013BB3F1807F78
:101CBC0001D301230FE00A4A7B68013B53600F21DB
:101CCC004FF0FF30FFF790FF054B00229A60044B5A
:101CDC0007221A60002318460837BD4680BD00BF96
:101CEC0010E000E080B582B000AF78607868FFF754
:101CFC002DFF00BF0837BD4680BD80B586B000AF54
:101D0C000346B9607A60FB7300237B61FFF742FFE7
:101D1C0078617A68B9687869FFF790FF024697F99D
:101D2C000F3011461846FFF75FFF00BF1837BD464E
:101D3C0080BD80B582B000AF0346FB7197F90730C8
:101D4C001846FFF735FF00BF0837BD4680BD80B58C
:101D5C0082B000AF78607868FFF7A2FF03461846A0
:101D6C000837BD4680BD000080B48BB000AF7860F2
:101D7C00396000237B6200233B6261E101227B6AB4
:101D8C0002FA03F3FB613B681B68FA691340BB6101
:101D9C00BA69FB699A4240F050813B685B68974A8C
:101DAC0093425ED0954A934275D8954A934258D047
:101DBC00934A93426FD8934A934252D0914A93429A
:101DCC0069D8914A93424CD08F4A934263D88F4A38
:101DDC00934246D08D4A93425DD8122B2AD8122BAF
:101DEC0059D801A252F823F06F1E0008491E0008B2
:101DFC005B1E00089D1E0008A31E0008A31E000801
:101E0C00A31E0008A31E0008A31E0008A31E0008A2
:101E1C00A31E0008A31E0008A31E0008A31E000892
:101E2C00A31E0008A31E0008A31E0008511E0008D4
:101E3C00651E0008764A934213D02CE03B68DB68A1
:101E4C003B6229E03B68DB6804333B6224E03B687F
:101E5C00DB6808333B621FE03B68DB680C333B629A
:101E6C001AE03B689B68002B02D104233B6213E011
:101E7C003B689B68012B05D108233B627B68FA69A0
:101E8C001A6109E008233B627B68FA695A6103E036
:101E9C0000233B6200E000BFBB69FF2B01D87B68CD
:101EAC0001E07B6804337B61BB69FF2B02D87B6A42
:101EBC009B0002E07B6A083B9B003B617B691A68D4
:101ECC000F213B6901FA03F3DB431A40396A3B6982
:101EDC0001FA03F31A437B691A603B685B6803F0F1
:101EEC008053002B00F0A9804A4B9B69494A43F070
:101EFC0001039361474B9B6903F00103BB60BB6813
:101F0C00454A7B6A9B08023352F82330FB607B6A9C
:101F1C0003F003039B000F2202FA03F3DB43FA687E
:101F2C001340FB607B683D4A93420DD07B683C4A72
:101F3C00934207D07B683B4A934201D1022304E0D1
:101F4C00032302E0012300E000237A6A02F003027B
:101F5C0092009340FA681343FB602F497B6A9B08FD
:101F6C000233FA6841F823203B685B6803F4801362
:101F7C00002B06D02C4B9A682B49BB6913438B6002
:101F8C0006E0294B9A68BB69DB43274913408B60F9
:101F9C003B685B6803F40013002B06D0224BDA6815
:101FAC002149BB691343CB6006E01F4BDA68BB6960
:101FBC00DB431D491340CB603B685B6803F4003383
:101FCC00002B06D0184B5A681749BB6913434B605A
:101FDC0006E0154B5A68BB69DB43134913404B6051
:101FEC003B685B6803F48033002B1FD00E4B1A68E0
:101FFC000D49BB6913430B601FE000BF000032109A
:10200C0000003110000022100000211000001210FE
:10201C0000001110001002400000014000080140B7
:10202C00000C014000100140000401400B4B1A68E9
:10203C00BB69DB43094913400B607B6A01337B624C
:10204C003B681A687B6A22FA03F3002B7FF496AE86
:10205C0000BF00BF2C37BD4680BC70470004014058
:10206C0080B485B000AF78600B467B807B689A6843
:10207C007B881340002B02D00123FB7301E000236B
:10208C00FB73FB7B18461437BD4680BC704780B48D
:10209C0083B000AF78600B467B8013467B707B78F7
:1020AC00002B03D07A887B681A6103E07B881A04C2
:1020BC007B681A6100BF0C37BD4680BC704780B48A
:1020CC0085B000AF78600B467B807B68DB68FB607B
:1020DC007A88FB6813401A04FB68D9437B880B4051
:1020EC001A437B681A6100BF1437BD4680BC704729
:1020FC0080B586B000AF78607B68002B01D10123DE
:10210C0072E27B681B6803F00103002B00F08780F0
:10211C00924B5B6803F00C03042B0CD08F4B5B6869
:10212C0003F00C03082B12D18C4B5B6803F4803347
:10213C00B3F5803F0BD1894B1B6803F40033002BA4
:10214C006CD07B685B68002B68D101234CE27B6808
:10215C005B68B3F5803F06D1804B1B687F4A43F424
:10216C00803313602EE07B685B68002B0CD17B4BBB
:10217C001B687A4A23F480331360784B1B68774AC8
:10218C0023F4802313601DE07B685B68B3F5A02FFC
:10219C000CD1724B1B68714A43F4802313606F4B54
:1021AC001B686E4A43F4803313600BE06B4B1B6867
:1021BC006A4A23F480331360684B1B68674A23F424
:1021CC00802313607B685B68002B13D0FFF7B4FC93
:1021DC00386108E0FFF7B0FC02463B69D31A642B68
:1021EC0001D9032300E25D4B1B6803F40033002B81
:1021FC00F0D014E0FFF7A0FC386108E0FFF79CFC7E
:10220C0002463B69D31A642B01D90323ECE1534BEF
:10221C001B6803F40033002BF0D100E000BF7B6897
:10222C001B6803F00203002B63D04C4B5B6803F07C
:10223C000C03002B0BD0494B5B6803F00C03082BF1
:10224C001CD1464B5B6803F48033002B16D1434BF7
:10225C001B6803F00203002B05D07B681B69012B64
:10226C0001D00123C0E13D4B1B6823F0F8027B68D1
:10227C005B69DB00394913430B603AE07B681B69EF
:10228C00002B20D0364B01221A60FFF755FC386129
:10229C0008E0FFF751FC02463B69D31A022B01D927
:1022AC000323A1E12D4B1B6803F00203002BF0D09C
:1022BC002A4B1B6823F0F8027B685B69DB0027491B
:1022CC0013430B6015E0264B00221A60FFF734FC19
:1022DC00386108E0FFF730FC02463B69D31A022B49
:1022EC0001D9032380E11D4B1B6803F00203002B73
:1022FC00F0D17B681B6803F00803002B3AD07B6895
:10230C009B69002B19D0174B01221A60FFF714FCA4
:10231C00386108E0FFF710FC02463B69D31A022B28
:10232C0001D9032360E10D4B5B6A03F00203002B20
:10233C00F0D0012000F09CFA1CE00A4B00221A603D
:10234C00FFF7FAFB38610FE0FFF7F6FB02463B693B
:10235C00D31A022B08D9032346E100BF0010024018
:10236C000000424280044242924B5B6A03F002033B
:10237C00002BE9D17B681B6803F00403002B00F0F1
:10238C00A6800023FB758B4BDB6903F08053002B7D
:10239C000DD1884BDB69874A43F08053D361854B61
:1023AC00DB6903F08053BB60BB680123FB75824B78
:1023BC001B6803F48073002B18D17F4B1B687E4A7B
:1023CC0043F480731360FFF7B7FB386108E0FFF745
:1023DC00B3FB02463B69D31A642B01D9032303E1F7
:1023EC00754B1B6803F48073002BF0D07B68DB68A3
:1023FC00012B06D16F4B1B6A6E4A43F0010313622B
:10240C002DE07B68DB68002B0CD16A4B1B6A694A98
:10241C0023F001031362674B1B6A664A23F0040323
:10242C0013621CE07B68DB68052B0CD1614B1B6ACB
:10243C00604A43F0040313625E4B1B6A5D4A43F02F
:10244C00010313620BE05B4B1B6A5A4A23F0010336
:10245C001362584B1B6A574A23F0040313627B68C0
:10246C00DB68002B15D0FFF767FB38610AE0FFF73C
:10247C0063FB02463B69D31A41F28832934201D97D
:10248C000323B1E04B4B1B6A03F00203002BEED08D
:10249C0014E0FFF751FB38610AE0FFF74DFB0246F1
:1024AC003B69D31A41F28832934201D903239BE052
:1024BC00404B1B6A03F00203002BEED1FB7D012B7A
:1024CC0005D13C4BDB693B4A23F08053D3617B68DD
:1024DC00DB69002B00F08780364B5B6803F00C0344
:1024EC00082B61D07B68DB69022B46D1334B002271
:1024FC001A60FFF721FB386108E0FFF71DFB02466D
:10250C003B69D31A022B01D903236DE0294B1B68BD
:10251C0003F00073002BF0D17B681B6AB3F5803F8E
:10252C0008D1244B5B6823F400327B689B682149FB
:10253C0013434B601F4B5B6823F474127B68196A5E
:10254C007B685B6A0B431B4913434B601B4B01229B
:10255C001A60FFF7F1FA386108E0FFF7EDFA02466E
:10256C003B69D31A022B01D903233DE0114B1B68A5
:10257C0003F00073002BF0D035E0104B00221A60F2
:10258C00FFF7DAFA386108E0FFF7D6FA02463B6942
:10259C00D31A022B01D9032326E0064B1B6803F048
:1025AC000073002BF0D11EE07B68DB69012B07D197
:1025BC00012319E00010024000700040600042420C
:1025CC000B4B5B68FB60FB6803F480327B681B6A17
:1025DC009A4206D1FB6803F470127B685B6A9A42DC
:1025EC0001D0012300E0002318461837BD4680BDFA
:1025FC000010024080B584B000AF786039607B6811
:10260C00002B01D10123D0E06A4B1B6803F00703B8
:10261C003A689A4210D9674B1B6823F00702654948
:10262C003B6813430B60634B1B6803F007033A686A
:10263C009A4201D00123B8E07B681B6803F00203C7
:10264C00002B20D07B681B6803F00403002B05D003
:10265C00594B5B68584A43F4E06353607B681B68D2
:10266C0003F00803002B05D0534B5B68524A43F42C
:10267C0060535360504B5B6823F0F0027B689B689F
:10268C004D4913434B607B681B6803F00103002B1F
:10269C0040D07B685B68012B07D1474B1B6803F468
:1026AC000033002B15D101237FE07B685B68022B84
:1026BC0007D1414B1B6803F00073002B09D1012398
:1026CC0073E03D4B1B6803F00203002B01D1012387
:1026DC006BE0394B5B6823F003027B685B6836491F
:1026EC0013434B60FFF728FAF8600AE0FFF724FA6F
:1026FC000246FB68D31A41F28832934201D9032374
:10270C0053E02D4B5B6803F00C027B685B689B000D
:10271C009A42EBD1274B1B6803F007033A689A42A5
:10272C0010D2244B1B6823F0070222493B68134349
:10273C000B60204B1B6803F007033A689A4201D0E8
:10274C00012332E07B681B6803F00403002B08D0E4
:10275C00194B5B6823F4E0627B68DB681649134312
:10276C004B607B681B6803F00803002B09D0124BED
:10277C005B6823F460527B681B69DB000E491343D2
:10278C004B6000F021F802460B4B5B681B0903F011
:10279C000F030A49CB5C22FA03F3094A1360094B75
:1027AC001B681846FFF786F9002318461037BD46FC
:1027BC0080BD00BF0020024000100240E030000845
:1027CC00300000203400002080B487B000AF00231C
:1027DC00FB600023BB6000237B6100237B60002334
:1027EC003B611E4B5B68FB60FB6803F00C03042B26
:1027FC0002D0082B03D027E0194B3B6127E0FB6884
:10280C009B0C03F00F03174AD35C7B60FB6803F44B
:10281C008033002B10D0114B5B685B0C03F0010371
:10282C00114AD35CBB607B680D4A03FB02F2BB68A8
:10283C00B2FBF3F37B6104E07B680C4A02FB03F30D
:10284C007B617B693B6102E0054B3B6100BF3B69EF
:10285C0018461C37BD4680BC704700BF00100240B4
:10286C0000127A00F03000080031000800093D0029
:10287C0080B485B000AF78600A4B1B680A4AA2FB93
:10288C0003235B0A7A6802FB03F3FB6000BFFB685F
:10289C005A1EFA60002BF9D100BF00BF1437BD4699
:1028AC0080BC704730000020D34D621080B582B0E0
:1028BC0000AF78607B68002B01D1012341E07B687D
:1028CC0093F83D30DBB2002B06D17B68002283F8F5
:1028DC003C207868FEF76CFD7B68022283F83D2073
:1028EC007B681A687B6804331946104600F056FA68
:1028FC007B68012283F846207B68012283F83E2006
:10290C007B68012283F83F207B68012283F84020FA
:10291C007B68012283F841207B68012283F84220E6
:10292C007B68012283F843207B68012283F84420D2
:10293C007B68012283F845207B68012283F83D20C7
:10294C00002318460837BD4680BD000080B485B012
:10295C0000AF78607B6893F83D30DBB2012B01D07F
:10296C00012335E07B68022283F83D207B681B68DD
:10297C00DA687B681B6842F00102DA607B681B68CE
:10298C00164A934209D07B681B68B3F1804F04D080
:10299C007B681B68124A934211D17B681B689B6849
:1029AC0003F00703FB60FB68062B10D07B681B68E9
:1029BC001A687B681B6842F001021A6007E07B68AA
:1029CC001B681A687B681B6842F001021A600023BE
:1029DC0018461437BD4680BC704700BF002C014020
:1029EC000004004080B584B000AF78607B681B6841
:1029FC00DB68FB607B681B681B69BB60BB6803F012
:102A0C000203002B20D0FB6803F00203002B1BD029
:102A1C007B681B686FF002021A617B6801221A77CF
:102A2C007B681B689B6903F00303002B03D0786859
:102A3C0000F098F905E0786800F08BF9786800F000
:102A4C009AF97B6800221A77BB6803F00403002B09
:102A5C0020D0FB6803F00403002B1BD07B681B68A1
:102A6C006FF004021A617B6802221A777B681B687C
:102A7C009B6903F44073002B03D0786800F072F963
:102A8C0005E0786800F065F9786800F074F97B6807
:102A9C0000221A77BB6803F00803002B20D0FB68D8
:102AAC0003F00803002B1BD07B681B686FF0080237
:102ABC001A617B6804221A777B681B68DB6903F058
:102ACC000303002B03D0786800F04CF905E078681C
:102ADC0000F03FF9786800F04EF97B6800221A7715
:102AEC00BB6803F01003002B20D0FB6803F010032D
:102AFC00002B1BD07B681B686FF010021A617B687F
:102B0C0008221A777B681B68DB6903F44073002B7F
:102B1C0003D0786800F026F905E0786800F019F920
:102B2C00786800F028F97B6800221A77BB6803F0FC
:102B3C000103002B0CD0FB6803F00103002B07D022
:102B4C007B681B686FF001021A617868FEF736F932
:102B5C00BB6803F08003002B0CD0FB6803F08003F0
:102B6C00002B07D07B681B686FF080021A617868B5
:102B7C0000F06FFABB6803F04003002B0CD0FB682D
:102B8C0003F04003002B07D07B681B686FF04002FA
:102B9C001A61786800F0F8F8BB6803F02003002B8A
:102BAC000CD0FB6803F02003002B07D07B681B685C
:102BBC006FF020021A61786800F042FA00BF1037FB
:102BCC00BD4680BD80B584B000AF7860396000230D
:102BDC00FB737B6893F83C30012B01D10223B4E0EA
:102BEC007B68012283F83C207B68022283F83D201D
:102BFC007B681B689B68BB60BB6823F07703BB607A
:102C0C00BB6823F47F43BB607B681B68BA689A601F
:102C1C003B681B68B3F5005F3ED0B3F5005F00F274
:102C2C008780B3F5805F00F08680B3F5805F7FD836
:102C3C00702B1AD0702B7BD8602B50D0602B77D890
:102C4C00502B3CD0502B73D8402B58D0402B6FD8E6
:102C5C00302B64D0302B6BD8202B60D0202B67D836
:102C6C00002B5CD0102B5AD062E07B6818683B6854
:102C7C0099683B685A683B68DB6800F06AF97B68C6
:102C8C001B689B68BB60BB6843F07703BB607B68C9
:102C9C001B68BA689A604FE07B6818683B68996853
:102CAC003B685A683B68DB6800F053F97B681B682B
:102CBC009A687B681B6842F480429A603CE07B68AF
:102CCC0018683B6859683B68DB681A4600F0CAF81C
:102CDC007B681B685021184600F021F92CE07B68BA
:102CEC0018683B6859683B68DB681A4600F0E8F8DE
:102CFC007B681B686021184600F011F91CE07B68AA
:102D0C0018683B6859683B68DB681A4600F0AAF8FB
:102D1C007B681B684021184600F001F90CE07B68C9
:102D2C001A683B681B681946104600F0F8F803E077
:102D3C000123FB7300E000BF7B68012283F83D2078
:102D4C007B68002283F83C20FB7B18461037BD467D
:102D5C0080BD80B483B000AF786000BF0C37BD4637
:102D6C0080BC704780B483B000AF786000BF0C3774
:102D7C00BD4680BC704780B483B000AF786000BFA4
:102D8C000C37BD4680BC704780B483B000AF786010
:102D9C0000BF0C37BD4680BC7047000080B485B0C6
:102DAC0000AF786039607B681B68FB607B682B4ADE
:102DBC00934207D07B68B3F1804F03D07B68284ADD
:102DCC00934208D1FB6823F07003FB603B685B689F
:102DDC00FA681343FB607B68204A934207D07B68F8
:102DEC00B3F1804F03D07B681D4A934208D1FB6836
:102DFC0023F44073FB603B68DB68FA681343FB60A9
:102E0C00FB6823F080023B685B691343FB607B68C3
:102E1C00FA681A603B689A687B68DA623B681A68E1
:102E2C007B689A627B680D4A934203D13B681A69AE
:102E3C007B681A637B6801225A617B681B6903F00B
:102E4C000103002B05D07B681B6923F001027B6812
:102E5C001A6100BF1437BD4680BC7047002C01407E
:102E6C000004004080B487B000AFF860B9607A60AD
:102E7C00FB681B6A7B61FB681B6A23F00102FB6821
:102E8C001A62FB689B693B613B6923F0F0033B6171
:102E9C007B681B013A6913433B617B6923F00A038E
:102EAC007B617A69BB6813437B61FB683A699A6101
:102EBC00FB687A691A6200BF1C37BD4680BC70473C
:102ECC0080B487B000AFF860B9607A60FB681B6AA9
:102EDC007B61FB681B6A23F01002FB681A62FB68BB
:102EEC009B693B613B6923F470433B617B681B032B
:102EFC003A6913433B617B6923F0A0037B61BB6898
:102F0C001B017A6913437B61FB683A699A61FB6820
:102F1C007A691A6200BF1C37BD4680BC704780B40A
:102F2C0085B000AF786039607B689B68FB60FB689C
:102F3C0023F07003FB603A68FB68134343F007030C
:102F4C00FB607B68FA689A6000BF1437BD4680BC92
:102F5C00704780B487B000AFF860B9607A603B60AE
:102F6C00FB689B687B617B6923F47F437B613B68D7
:102F7C001A027B681A43BB6813437A6913437B615B
:102F8C00FB687A699A6000BF1C37BD4680BC7047ED
:102F9C0080B485B000AF786039607B6893F83C30C2
:102FAC00012B01D1022341E07B68012283F83C20F4
:102FBC007B68022283F83D207B681B685B68FB60A2
:102FCC007B681B689B68BB60FB6823F07003FB602D
:102FDC003B681B68FA681343FB607B681B68FA68E4
:102FEC005A607B681B68144A934209D07B681B6843
:102FFC00B3F1804F04D07B681B68104A93420CD10C
:10300C00BB6823F08003BB603B685B68BA68134302
:10301C00BB607B681B68BA689A607B68012283F886
:10302C003D207B68002283F83C200023184614378F
:10303C00BD4680BC704700BF002C0140000400401E
:10304C0080B483B000AF786000BF0C37BD4680BC45
:10305C00704780B483B000AF786000BF0C37BD46BA
:10306C0080BC704703460244934200D1704703F87A
:10307C00011BF9E770B500260C4D0D4C641BA41018
:10308C00A64209D100F01AF800260A4D0A4C641B1E
:10309C00A410A64205D170BD55F8043B98470136E3
:1030AC00EEE755F8043B98470136F2E70431000887
:1030BC00043100080431000808310008F8B500BFDD
:1030CC00F8BC08BC9E467047F8B500BFF8BC08BCFD
:0430DC009E46704755
:1030E00000000000000000000102030406070809B8
:1030F00002030405060708090A0B0C0D0E0F101039
:0431000001020000C8
:04310400310100088D
:043108000D010008AD
:10310C0001000000000000000000000001000000B1
:10311C0000000000000000000100000000000000A2
:10312C000000000001000000000000000000000092
:0C313C0000127A001000000001000000EA
:0400000508001A498C
:00000001FF
